:020000040800F2
:1000000000100020F51A0008E11A0008E31A0008A1
:1000100000000000000000000000000000000000E0
:10002000000000000000000000000000E51A0008C9
:100030000000000000000000E71A0008E91A0008AC
:10004000451B000800000000451B0008451B000878
:10005000451B0008451B0008451B0008451B000800
:1000600000000000451B0008451B0008451B000858
:10007000451B0008451B0008451B00080000000048
:10008000451B00080000000000000000451B0008A0
:1000900000000000451B0008451B0008451B000828
:1000A00000000000451B000800000000451B000880
:1000B0000000000000000000000000000000000040
:1000C00010B5064C2378002B07D1054B002B02D02E
:1000D000044800E000BF0123237010BD3C04002051
:1000E00000000000781C0008044B10B5002B03D062
:1000F0000349044800E000BF10BDC04600000000F6
:1001000040040020781C000802B4714649084900E8
:10011000095649008E4402BC7047C04602B471467D
:1001200049084900095C49008E4402BC7047C0463A
:10013000002243088B4274D303098B425FD3030A26
:100140008B4244D3030B8B4228D3030C8B420DD339
:10015000FF22090212BA030C8B4202D312120902C7
:1001600065D0030B8B4219D300E0090AC30B8B4205
:1001700001D3CB03C01A5241830B8B4201D38B03B3
:10018000C01A5241430B8B4201D34B03C01A524158
:10019000030B8B4201D30B03C01A5241C30A8B429B
:1001A00001D3CB02C01A5241830A8B4201D38B0286
:1001B000C01A5241430A8B4201D34B02C01A52412A
:1001C000030A8B4201D30B02C01A5241CDD2C3099C
:1001D0008B4201D3CB01C01A524183098B4201D318
:1001E0008B01C01A524143098B4201D34B01C01A03
:1001F000524103098B4201D30B01C01A5241C3087B
:100200008B4201D3CB00C01A524183088B4201D3E9
:100210008B00C01A524143088B4201D34B00C01AD5
:100220005241411A00D20146524110467047FFE741
:1002300001B5002000F006F802BDC0460029F7D045
:1002400076E770477047C04670B50500FA200D4B41
:1002500080001978FFF76CFF0B4B01001868FFF75F
:1002600067FF00F061F804000120002C09D1032D84
:1002700007D802382200290000F02CF82000034B98
:100280001D6070BD00000020080000200400002058
:100290001023064A10B5116803200B431360FFF7C3
:1002A000D3FF01F047FB002010BDC04600200240F4
:1002B000034A044B11681B785B1813607047C046F3
:1002C0005804002000000020014B18687047C04609
:1002D0005804002030B5FF2503242A000440E40020
:1002E000A24089012940D243A140C3B200280ADBC1
:1002F000C0240B4B80088000C018A40003591A408A
:100300001143015130BD0F200340083B05489B08B5
:100310009B001B18D86902401143D961F2E7C0461F
:1003200000E100E000ED00E08022431E52040120C5
:1003300093420DD2C021074A07485360036A090659
:100340001B021B0A0B43036200200723906013600B
:100350007047C04610E000E000ED00E00023F0B57B
:1003600087B00A681400DC4001D107B0F0BD012558
:1003700014009D402C4001942A4200D195E04A6827
:100380005E0094460322644622400324B440E443C2
:100390000294541E012C2AD88768029C2740CC68FE
:1003A000B4403C43846044680127AC432500644664
:1003B00024093C409C402C434460C568029C254075
:1003C0008C68B4402C43C460022A12D1DC08072593
:1003D000A4000419276A03940F241D40AD00AC400B
:1003E000A7430C69AC402743039C276201E0032A22
:1003F000E3D10468029DB24025402C001443046000
:10040000C0246246A40222424FD00125284A9027E8
:100410009469FF052C43946192699C082A400592D7
:10042000059A244AA400A4180F2202351D40AD00ED
:10043000AA40A66896430022B8420CD01E4F013253
:10044000B84208D01D4F0132B84204D01C4F0132CF
:10045000B84200D00232AA4067463243A260194A2D
:10046000019C9668019DE4433543FF0201D43500A9
:10047000254067469560D668019D3543BF0201D48B
:10048000350025406746D5605668019D3543BF035A
:1004900001D435002540674655601568019E2E43FE
:1004A000FF0301D425402E001660013359E7C046F2
:1004B000001002400000014000040048000800480D
:1004C000000C004800040140002A01D081617047FF
:1004D0008162FCE7F0B5040085B0002845D00368D0
:1004E000DB072FD423689B0700D581E023681B0717
:1004F00000D5BCE023685B0700D5DFE02368DB069E
:100500001AD562690423B54D012A00D04AE1696B0E
:1005100002270B436B636B6B1A436A63FFF7D4FECE
:1005200006006B6B3B4200D135E1F8216A6BA36991
:100530008A43DB0013436B63236A002B00D059E12D
:1005400000202AE00C21A54D6A680A40042A06D042
:100550006B680B40082B0AD16B68DB0307D52B684F
:100560009B03BFD56368002BBCD1012015E06368F5
:10057000012B14D180232A685B0213432B60FFF701
:10058000A3FE80270600BF022B683B42AAD1FFF7DB
:100590009BFE801B6428F7D9032005B0F0BD002B1B
:1005A00016D12B688E4A802713402B602B688D4A0A
:1005B000BF0213402B60FFF787FE06002B683B420B
:1005C00000D18FE7FFF780FE801B6428F6D9E3E7B0
:1005D000052B05D180232A68DB0213432B60C9E772
:1005E0002B687F4A13402B602B687E4A1340C5E777
:1005F0000C227A4D6B68134206D06B681340082BAF
:1006000010D16B68DB030DD42B689B0702D5E36820
:10061000012BAAD1F8212A6823698A43DB001343FE
:100620002B6063E7E2680123002A0FD02A680227C3
:1006300013432B60FFF748FE06002B683B42E9D1CD
:10064000FFF742FE801B0228F7D9A5E72A68022798
:100650009A432A60FFF738FE06002B683B4200D120
:1006600044E7FFF731FE801B0228F6D994E7E269E0
:1006700001235A4D002A10D06A6A022713436B6285
:10068000FFF722FE06006B6A3B4200D032E7FFF71D
:100690001BFE801B0228F6D97EE76A6A02279A436E
:1006A0006A62FFF711FE06006B6A3B4200D121E748
:1006B000FFF70AFE801B0228F6D96DE78022002191
:1006C000464D5205EB690091134208D1EB69134383
:1006D000EB61EB6913400393039B01230093802795
:1006E000414E7F0033683B4206D0A368012B13D1F3
:1006F0002A6A13432B6230E033683B433360FFF7D1
:10070000E3FD019033683B42EFD1FFF7DDFD019B34
:10071000C01A6428F6D93FE70122002B14D12B6AB6
:10072000022793432B622B6A033293432B62FFF71A
:10073000CBFD06002B6A3B4216D0FFF7C5FD2B4BC5
:10074000801B9842F6D927E7052B16D1296A013B71
:100750000B432B622B6A1A432A62FFF7B5FD02276F
:1007600006002B6A3B420FD0009B012B00D0C5E650
:10077000EB691F4A1340EB61C0E62B6A93430422E6
:100780002B622B6A9343B5E7FFF79EFD174B801B47
:100790009842E6D900E7FFF797FD801B022800D8B2
:1007A000BFE6F9E6053203D16A6B9A436A63BCE699
:1007B0006A6B0227134301226B636B6B93436B637A
:1007C000FFF782FD06006B6B3B4200D1B4E6FFF7FA
:1007D0007BFD801B0228F6D9DEE6C04600100240F1
:1007E000FFFFFEFFFFFFFBFF0070004088130000CB
:1007F000FFFFFFEF0C21344D6A680A40082A47D0FA
:10080000324A022B32D12B68802713402B60FFF72E
:100810005BFD0600BF042B683B4221D10F22EB6A2F
:1008200080269343E26AB6041343EB62616AA36ACB
:100830006A680B4326490A4013436B6080232A6889
:100840005B0413432B60FFF73FFD04002B6833422A
:1008500000D075E6FFF738FD001B0228F6D99BE6AD
:10086000FFF732FD801B0228D5D995E62B6880263C
:1008700013402B60FFF728FD0400B6042B683342B9
:1008800000D15DE6FFF720FD001B0228F6D983E6C4
:100890001800012B00D180E680216B68606A490254
:1008A000EA6A1940814200D05FE60F210A40E16AFE
:1008B0008A4200D059E6F02292031340A26A934282
:1008C00000D13DE651E6C04600100240FFFFFFFEAA
:1008D000FFFFC2FF0C2270B50C4D6B681A40082A4E
:1008E00011D10F200A4A990C0140545CEA6A094967
:1008F0000240895CDB0304D50748FFF719FC60431D
:1009000070BD0648FBE70448FAE7C0460010024005
:10091000901C0008A01C000800127A0000093D008D
:10092000F7B504000E00002801D10120FEBD012210
:10093000374D2B6813408B421CD321688B0722D480
:10094000CB072FD401232A681A40B24251D823681A
:10095000304D5B0754D4FFF7BDFF6B682E4A1B0672
:100960001B0FD35CD8402D4B18600320FFF76CFCA5
:100970000020DBE72B6893430B432B602B6813406D
:100980008B42D2D1D9E7234A4B0704D5E0235068E4
:10099000DB0003435360F02053688343A0680343A4
:1009A0005360CDE71B4F62683B68012A19D19B0356
:1009B000BBD503217B688B4313437B60FFF784FC2B
:1009C00001900C237A681A4063689B009A42B9D060
:1009D000FFF77AFC019BC01A114B9842F1D9032012
:1009E000A4E7022A02D19B01E3D49EE79B07E0D44F
:1009F0009BE72A689A432A602A681A42A7D094E79C
:100A00006B68084A1340E26813436B60A3E7C04673
:100A10000020024000100240B31C00080800002023
:100A200088130000FFF8FFFF044B054A5B685B0575
:100A30005B0FD35C034A1068D84070470010024037
:100A4000C31C000808000020F0B50368050085B04D
:100A5000DB032AD580220021384C5205E36900913E
:100A6000134208D1E3691343E361E369134003933D
:100A7000039B012300938027314E7F0033683B4264
:100A800028D0226AC02311009B002E4E19401A4222
:100A900032D1236A1E406B681E43009B2662012BE5
:100AA00003D1E369284A1340E3612A68D30706D5D6
:100AB000032022490B6B8343A86803430B63002088
:100AC000930617D510211D4A136B8B43E9680B431E
:100AD00013630FE033683B433360FFF7F5FB01908E
:100AE00033683B42CDD1FFF7EFFB019BC01A64286E
:100AF000F6D9032005B0F0BD6A6813408B42C8D018
:100B00008023226A206A11005B0203432362236A66
:100B10000E483140034023622162D307B9D5FFF765
:100B2000D3FB07000222236A1342B2D1FFF7CCFBAA
:100B3000074BC01B9842F5D9DBE7C04600100240C6
:100B400000700040FFFCFFFFFFFFFFEFFFFFFEFF15
:100B500088130000F8B504000120002C67D0636AF8
:100B6000002B65D1822261685200914200D0E3617E
:100B700000232500A3625D352B78DAB2002B05D166
:100B800023005C3320001A7000F0ECFE02234021A9
:100B90002B702268E56813688B43E0211360C9005D
:100BA00000238D4248D8802040018D4200D0A362AE
:100BB000822366685B0033408426A76836023E4085
:100BC000334302262769A1693E4033430126676902
:100BD000B44637403B438027BF000F403B43382794
:100BE000E669090C37403B438027266A37403B4380
:100BF0008027A66ABF0137403B43136010230827B4
:100C0000666A3340666B37403B43F0273F013D4007
:100C10001D4304231940294308435060D369084900
:100C200000200B40D361634620665D342370F8BD1D
:100C30000023236163619BE7F02118000901B4E7F9
:100C4000FFF7FFFF0122036A70B593430362036A53
:100C500044688569723295430A68154302229343BA
:100C60008A681343114A904205D0114EB04202D017
:100C7000104EB04213D10826B343CE683343042646
:100C8000B343904205D00A4A904202D0094A9042AA
:100C900005D1094A8E6922404C69344314434A689D
:100CA000446085614263036270BDC046002C014010
:100CB0000044014000480140FFFCFFFF70B5732570
:100CC000036A164A13400362036A4268C469AC436C
:100CD0000D682C43124D2B408D682D022B43114D76
:100CE000A8420ED1104D1D40CB681B022B430F4D67
:100CF0002B400F4D4E6915408A69324312012A4339
:100D000005E00C4DA842F4D00B4DA842F1D0426052
:100D10004A68C461C263036270BDC046FFFEFFFF44
:100D2000FFFDFFFF002C0140FFF7FFFFFFFBFFFF70
:100D3000FFCFFFFF0044014000480140036A124A10
:100D400030B513400362026A104C4368C569254000
:100D50000C68240225430E4C22408C682403224355
:100D60000C4CA04205D00C4CA04202D00B4CA0422F
:100D700004D10B4C23404C69A401234343604B68CE
:100D8000C5610364026230BDFFEFFFFFFF8CFFFF10
:100D9000FFDFFFFF002C01400044014000480140FC
:100DA000FFBFFFFF70470000194A10B5036890426B
:100DB00002D0184CA04208D17024A3434C682343AE
:100DC00090420BD0134CA04208D0134CA04205D047
:100DD000124CA04202D0124CA04203D1114C23402D
:100DE000CC6823438024A3434C69234303608B686E
:100DF000C3620B688362904205D0084B984202D0D0
:100E0000074B984201D10B6903630123436110BD75
:100E1000002C01400004004000200040004401403C
:100E200000480140FFFCFFFF70B504000120002CCA
:100E300021D025003D352B78DAB2002B05D12300D7
:100E40003C3320001A7000F0BDFD02232B70206897
:100E5000211DFFF7A9FF2200012300204632137055
:100E60004534083A137053709370D37013715371F3
:100E7000937123702B7070BD70B504000120002C9D
:100E800021D025003D352B78DAB2002B05D1230087
:100E90003C3320001A70FFF785FF02232B70206877
:100EA000211DFFF781FF220001230020463213702D
:100EB0004534083A137053709370D37013715371A3
:100EC000937123702B7070BD1022036A70B5934329
:100ED0000362026A154C4368856925400C68240248
:100EE00025432024A2438C6824012243104CA042B5
:100EF0000FD18024A2431400CA6812012243402467
:100F0000A2430C4E4C691E408B6923439B00334324
:100F100005E0094CA042F4D0084CA042F1D0436057
:100F20004B6885618363026270BDC046FF8CFFFF22
:100F3000002C0140FFF3FFFF004401400048014046
:100F4000F8B507003C373B7804000E00150002207E
:100F5000012B0AD001383870082A3DD006D8002A63
:100F600017D0042A27D000233B70F8BD0C2AFAD1F1
:100F70002068FFF7E3FE802223681201D9690A4343
:100F8000DA61DA691C490A40DA613269D969120208
:100F90002FE02068FFF756FE0822236899690A436C
:100FA00004219A619A698A439A619A6931690A436C
:100FB0009A610020D7E72068FFF786FF8022236828
:100FC000120199690A439A619A690B490A409A6128
:100FD000326999691202EAE72068FFF76FFE04217F
:100FE0002368DA691543DD61DA698A43DA61DA690F
:100FF00031690A43DA61DCE7FFFBFFFF30B5846843
:10100000034D0A431B022C4013432343836030BD2E
:10101000FF00FFFFF8B5050002233C3504002878E7
:101020001A0001281DD0260001273D362F7033708D
:101030002068494A8368134083600B68602B59D04D
:1010400035D8402B00D16EE015D8202B0DD00AD812
:1010500010221900914308D03A0001233370002375
:101060002B701000F8BD302BF6D1702182688A43B6
:101070001343072218E0502BEED1CA684C68016A6E
:10108000036ABB43F02703628369BB431F0013015C
:101090000A2291430A003B43224383610262702289
:1010A000836893431A0057231343836016E080221A
:1010B0005201944600226345CFD080229201934290
:1010C0000ED03A00702BC8D1CB684A688968FFF708
:1010D00095FF7723226891680B4393600022BCE759
:1010E000CB684A688968FFF789FF80232268DB01A3
:1010F0009168F1E74A68CF681021036A174C8B4367
:1011000003628169036A2140A024A3431C001301E8
:1011100070223F0323433943816103628368934311
:101120001A006723C0E7CA684C68016A036ABB43B8
:10113000F02703628369BB431F0013010A22914316
:101140000A003B4322438361026270228368934317
:101150001A004723A8E7C0468800FFFFFF0FFFFFE4
:101160001F2310B5012419408C408A40036AA34311
:101170000362036A1A43026210BD000010B5030047
:101180000400002905D101203E331A78824218D08C
:1011900010BD04290FD13F331B780120013B5A1E9B
:1011A0009341DBB2002BF3D102232200042926D184
:1011B0003F32137007E0082901D14033ECE7413397
:1011C000EAE702221A7001222068FFF7C9FF2368AC
:1011D00015498B4219D0154A934216D0144A9342AE
:1011E00013D0144A934218D107219A6800200A406C
:1011F000062ACDD0012219680A431A60C8E70829D7
:1012000001D14032D5E74132D3E78022586C120237
:1012100002435A648B42E4D1E6E7012219680020B8
:101220000A431A60B4E7C046002C01400044014064
:10123000004801400004004010B5FFF79FFF10BDBB
:1012400070B5040002223C34257803001000012D03
:1012500019D01D0070263D352A701B6858689A68A1
:10126000B0430E68304358600748834202D00748B5
:10127000834204D18020496882430A439A60012353
:1012800000202B70207070BD002C01400004004035
:1012900030B5EFF31084012282F310880168124DFB
:1012A0000B682B400B6084F31088EFF3108482F3FB
:1012B000108801688B6893438B6084F31088036EF9
:1012C00093420AD1EFF3108183F31088102402684F
:1012D0001368A343136081F310882022031DDA678B
:1012E00000230366836630BDDFFEFFFF70B5040098
:1012F0002569A26801682A436569C3692A430868A9
:10130000394D1A43284002430A604A683748256A23
:101310000240E06802434A60A26988682A43344D6B
:10132000284002438A600321324A126B0A4080211E
:10133000013A0902022A4BD82F48805C8B4224D103
:10134000082816D8FEF7EAFE4615081505151515E6
:101350000900FFF7BFFA3FE0284B58006368616857
:101360005B08C018FEF7E4FE0200254B103A9A42D3
:1013700001D9012033E00F23020000079A4393B202
:10138000400F22681843D06028E00828F1D8FEF703
:10139000BBFE15F01DF01AF0F0F0050080200002F1
:1013A000636861685B081818FEF7C2FE0200144B00
:1013B000103A9A42DDD82368D8600FE0FFF734FB7B
:1013C00000280BD0ECE7FFF785FAF9E70B48E7E7D1
:1013D0008B42F3D1FFF728FB031EBED10020002370
:1013E000A366E36670BDC046F369FFFFFFCFFFFF52
:1013F000FFF4FFFF00100240B01C000800127A004A
:10140000EFFF0000436A30B5DA0706D50168284CC3
:101410004A682240846A22434A609A0706D50168D6
:10142000244C4A682240C46A22434A605A0706D5BF
:101430000168214C4A682240046B22434A601A0723
:1014400006D501681D4C4A682240446B22434A601D
:10145000DA0606D501681A4C8A682240846B22435A
:101460008A609A0606D50168164C8A682240C46BC9
:1014700022438A605A0610D50168134D4A68046CED
:101480002A4022434A6080225203944205D14A688E
:101490000E4C2240446C22434A601B0606D502686B
:1014A0000B4953680B40816C0B43536030BDC04601
:1014B000FFFFFDFFFFFFFEFFFFFFFBFFFF7FFFFFC3
:1014C000FFEFFFFFFFDFFFFFFFFFEFFFFFFF9FFFCC
:1014D000FFFFF7FFF7B504000D0017000826009383
:1014E0002268D3692B405B1B59424B41BB4201D060
:1014F000002021E0089B0133F3D0FEF7E5FE009BBE
:10150000C01A089B984228D8002B26D004212368B3
:101510001A680A42E4D0DA6911003140019132427E
:101520000BD020001E62FFF7B3FE23000833DE67F6
:101530000023012078342370FEBD8022D969120176
:101540001142CDD01A622000FFF7A2FE2300202214
:101550000833DA67019B783423700320ECE700003E
:101560000300F7B5002504000833DD67FEF7ACFE85
:101570002600236807001B6878361B071BD58021CF
:10158000264B2A000093890303002000FFF7A2FFE7
:10159000A84210D0EFF31081012383F3108880203C
:1015A000226813688343136081F310882023E36764
:1015B00035700320FEBD250008CD1B685B0725D5CF
:1015C0008021164B0022009320003B00C903FFF747
:1015D00081FF00281AD0EFF31080012282F31088D7
:1015E00021680F4F0B683B400B6080F31088EFF3CE
:1015F000108082F3108821688B6893438B6080F39E
:1016000010882023EB6700233370D2E700202023CB
:10161000E367EB67206660663070CBE7FFFFFF0192
:10162000DFFEFFFF10B5041E01D1012010BDC36F06
:10163000002B04D102007832137000F01DFA24232D
:1016400001212268E367136820008B431360FFF7D2
:101650004DFE0128E9D0636A002B02D02000FFF77D
:10166000D1FE236807495A6820000A4008215A60C1
:101670009A688A439A60012219680A431A60FFF740
:101680006FFFD3E7FFF7FFFF30B595B028220021A9
:101690000AA800F07DFA10220021684600F078FACE
:1016A0001022002104A800F073FA80235B0211933A
:1016B0008023012402255B0308A80894099410954F
:1016C0001293FEF707FF002801D072B6FEE707234A
:1016D000029003902100684600930195FFF720F9DE
:1016E000002801D072B6FEE7069004A80494FFF724
:1016F000ABF9002801D072B6FEE715B030BD00008E
:10170000F0B58DB0FEF7C4FDFFF7BEFF1422002137
:1017100005A800F03DFA8020794BC00359690027E5
:10172000014359615A691026024080200092009AB4
:10173000596980020143596180215A69C9020240F6
:1017400090200192019A5A69C0050A435A615B6967
:1017500000220B4002931021029BFEF7B5FE902061
:101760000123082505A9C005069305960797089744
:10177000FEF7F4FD3200390005A800F009FA2A004E
:10178000390003A800F004FA5E4C5F4B2000236090
:101790002F2363605D4BA760E36027616761A761EA
:1017A000FFF742FBB84201D072B6FEE7802320006B
:1017B0005B0105A90593FFF72DFC002801D072B647
:1017C000FEE70390049003A92000FFF739FD071EF0
:1017D00001D072B6FEE701001C2205A800F0D8F97E
:1017E0004B4C4C4B200023602F236360474BA7607A
:1017F000E3602761A761FFF717FB002801D072B6ED
:10180000FEE72000FFF738FB021E01D072B6FEE7AC
:10181000602306900790099005A920000593FFF723
:101820008FFB071E01D072B6FEE7200000F0FEF825
:101830003200390005A800F0ABF92A00390003A8EE
:1018400000F0A6F9344E354B30003360344B7760EE
:10185000B760F3603761B761FFF7E6FA002801D09F
:1018600072B6FEE7802330005B0105A90593FFF700
:10187000D1FB002801D072B6FEE70390049003A9C3
:101880003000FFF7DDFC031E01D072B6FEE72548ED
:10189000254A83600260822252004260FD32FF329C
:1018A000C260013AFF3A8261C93AFF3AC261313AF5
:1018B00003614361036243628362C26203634563FF
:1018C000FFF748F9002801D072B6FEE71748184B19
:1018D0000C22036096231B02436000234261836055
:1018E000C36003618361C36103624362FFF79AFED1
:1018F000011E01D072B6FEE72000FFF79DFCFEE757
:1019000000100240C0040020002C0140E70300004A
:101910000805002000200040500500200004004081
:10192000FFFF00005C04002000300140980500200B
:101930000038014001200A4B82B099690143996146
:1019400080219A69490502400092009ADA690A43A7
:10195000DA61DB690B400193019B02B07047C0461E
:101960000010024010B5040088B01422002103A822
:1019700000F00EF9114B22689A421DD18020104BC5
:10198000400199690143996180219A698902024065
:101990000192019A5A6990200A435A615B69C00515
:1019A0000B400293029BE0230393DE3B049303A9C5
:1019B00001330693FEF7D2FC08B010BD00300140A1
:1019C000001002400368154A84B093420BD1802076
:1019D000134A0001916901439161936903400193A6
:1019E000019B04B070470F4A934209D102200C4A70
:1019F000D1690143D161D36903400293029BF0E7AF
:101A0000094A9342EDD18020054A4000D169014343
:101A1000D161D36903400393039BE2E7002C0140AB
:101A200000100240000400400020004010B50400F7
:101A300086B01422002101A800F0AAF80B4B2268FE
:101A40009A4210D180200A4AC00251690143516173
:101A5000536901A903400093009B022305480193A9
:101A60000293FEF77BFC06B010BDC046002000408C
:101A7000001002400004004810B5040088B0142291
:101A8000002103A800F084F8134B22689A4220D169
:101A90008020124BC00199690143996180219A69A4
:101AA000890202400192019A5A6990200A435A61C0
:101AB0005B69C0050B400293029BC023DB000393CC
:101AC000022304930133069303A9023B0793FEF715
:101AD00045FC08B010BDC04600380140001002406F
:101AE000FEE7FEE77047704710B5FEF7E1FB10BD5B
:101AF000704700000D488546FFF7FAFF0C480D4976
:101B00000D4A002302E0D458C4500433C4188C4258
:101B1000F9D30A4A0A4C002301E013600432A242BE
:101B2000FBD300F011F8FFF7EBFDFEE700100020FB
:101B3000000000203C040020DC1C00083C040020C5
:101B400024060020FEE7000070B500260C4D0D4C69
:101B5000641BA410A64209D1002600F08DF80A4D9E
:101B60000A4C641BA410A64205D170BDB300EB580B
:101B700098470136EEE7B300EB5898470136F2E795
:101B8000D01C0008D01C0008D01C0008D81C00087D
:101B900003008218934200D1704719700133F9E7AE
:101BA000034B10B5002B02D0024800F005F810BD21
:101BB00000000000C91B0008002310B501001A0036
:101BC000180000F017F810BD70B5074D074C641BE6
:101BD000A410002C02D100F055F870BD013CA30008
:101BE000EB589847F5E7C046D81C0008DC1C0008F5
:101BF00070477047F7B51E4F040038681600009113
:101C00000193FFF7F5FF1B4B19680B00FC33DA6CEF
:101C1000002A03D10A004D32FF32DA645368386873
:101C20001F2B04DDFFF7E5FF01204042FEBD002C25
:101C300014D0990051180F0088373E600127160014
:101C40009F408536FF367568FC313D437560019DC8
:101C5000CD60022C02D1B1680F43B760591C5160AE
:101C6000023300999B009950FFF7C3FF0020DDE786
:101C700038040020CC1C0008F8B5C046F8BC08BCED
:101C80009E467047F8B5C046F8BC08BC9E467047F3
:101C900002030405060708090A0B0C0D0E0F1010AD
:101CA0000102030405060708090A0B0C0D0E0F10AC
:101CB0000408020000000000000000010203040606
:101CC00007080900000000010203040010000020C2
:081CD000A11B0008E900000857
:041CD800C10000083F
:101CDC00010000000400000000127A000000000067
:101CEC0000000000FC02002064030020CC03002054
:101CFC0000000000000000000000000000000000D8
:101D0C0000000000000000000000000000000000C7
:101D1C0000000000000000000000000000000000B7
:101D2C0000000000000000000000000000000000A7
:101D3C000000000000000000000000000000000097
:101D4C000000000000000000000000000000000087
:101D5C000000000000000000000000000000000077
:101D6C000000000000000000000000000000000067
:101D7C000000000000000000000000000000000057
:101D8C000000000000000000010000000000000046
:101D9C000E33CDAB34126DE6ECDE05000B0000000B
:101DAC000000000000000000000000000000000027
:101DBC000000000000000000000000000000000017
:101DCC000000000000000000000000000000000007
:101DDC0000000000000000000000000000000000F7
:0C210C0000000000000000002006002081
:0400000508001AF5E0
:00000001FF
